{
  "contractName": "BarangayRecords",
  "abi": [
    {
      "inputs": [],
      "stateMutability": "nonpayable",
      "type": "constructor"
    },
    {
      "anonymous": false,
      "inputs": [
        {
          "indexed": true,
          "internalType": "string",
          "name": "recordId",
          "type": "string"
        },
        {
          "indexed": false,
          "internalType": "string",
          "name": "residentName",
          "type": "string"
        },
        {
          "indexed": false,
          "internalType": "string",
          "name": "documentType",
          "type": "string"
        },
        {
          "indexed": false,
          "internalType": "string",
          "name": "documentHash",
          "type": "string"
        },
        {
          "indexed": false,
          "internalType": "uint256",
          "name": "createdAt",
          "type": "uint256"
        },
        {
          "indexed": true,
          "internalType": "address",
          "name": "uploadedBy",
          "type": "address"
        }
      ],
      "name": "RecordStored",
      "type": "event"
    },
    {
      "inputs": [],
      "name": "owner",
      "outputs": [
        {
          "internalType": "address",
          "name": "",
          "type": "address"
        }
      ],
      "stateMutability": "view",
      "type": "function",
      "constant": true
    },
    {
      "inputs": [
        {
          "internalType": "string",
          "name": "recordId",
          "type": "string"
        },
        {
          "internalType": "string",
          "name": "residentName",
          "type": "string"
        },
        {
          "internalType": "string",
          "name": "documentType",
          "type": "string"
        },
        {
          "internalType": "string",
          "name": "documentHash",
          "type": "string"
        },
        {
          "internalType": "string",
          "name": "ipfsCid",
          "type": "string"
        }
      ],
      "name": "addRecord",
      "outputs": [],
      "stateMutability": "nonpayable",
      "type": "function"
    },
    {
      "inputs": [
        {
          "internalType": "string",
          "name": "recordId",
          "type": "string"
        }
      ],
      "name": "getRecord",
      "outputs": [
        {
          "components": [
            {
              "internalType": "string",
              "name": "recordId",
              "type": "string"
            },
            {
              "internalType": "string",
              "name": "residentName",
              "type": "string"
            },
            {
              "internalType": "string",
              "name": "documentType",
              "type": "string"
            },
            {
              "internalType": "string",
              "name": "documentHash",
              "type": "string"
            },
            {
              "internalType": "string",
              "name": "ipfsCid",
              "type": "string"
            },
            {
              "internalType": "uint256",
              "name": "createdAt",
              "type": "uint256"
            },
            {
              "internalType": "address",
              "name": "uploadedBy",
              "type": "address"
            },
            {
              "internalType": "bool",
              "name": "exists",
              "type": "bool"
            }
          ],
          "internalType": "struct BarangayRecords.Record",
          "name": "",
          "type": "tuple"
        }
      ],
      "stateMutability": "view",
      "type": "function",
      "constant": true
    }
  ],
  "bytecode": "0x608060405234801561001057600080fd5b50600080546001600160a01b03191633179055610c44806100326000396000f3fe608060405234801561001057600080fd5b50600436106100415760003560e01c806311dd8845146100465780632d1814f21461006f5780638da5cb5b14610084575b600080fd5b61005961005436600461082c565b6100af565b60405161006691906108b9565b60405180910390f35b61008261007d36600461098c565b6104ae565b005b600054610097906001600160a01b031681565b6040516001600160a01b039091168152602001610066565b61010260405180610100016040528060608152602001606081526020016060815260200160608152602001606081526020016000815260200160006001600160a01b031681526020016000151581525090565b6001826040516101129190610a5e565b9081526040519081900360200190206006015460ff600160a01b909104166101745760405162461bcd60e51b815260206004820152601060248201526f149958dbdc99081b9bdd08199bdd5b9960821b60448201526064015b60405180910390fd5b6001826040516101849190610a5e565b9081526020016040518091039020604051806101000160405290816000820180546101ae90610a7a565b80601f01602080910402602001604051908101604052809291908181526020018280546101da90610a7a565b80156102275780601f106101fc57610100808354040283529160200191610227565b820191906000526020600020905b81548152906001019060200180831161020a57829003601f168201915b5050505050815260200160018201805461024090610a7a565b80601f016020809104026020016040519081016040528092919081815260200182805461026c90610a7a565b80156102b95780601f1061028e576101008083540402835291602001916102b9565b820191906000526020600020905b81548152906001019060200180831161029c57829003601f168201915b505050505081526020016002820180546102d290610a7a565b80601f01602080910402602001604051908101604052809291908181526020018280546102fe90610a7a565b801561034b5780601f106103205761010080835404028352916020019161034b565b820191906000526020600020905b81548152906001019060200180831161032e57829003601f168201915b5050505050815260200160038201805461036490610a7a565b80601f016020809104026020016040519081016040528092919081815260200182805461039090610a7a565b80156103dd5780601f106103b2576101008083540402835291602001916103dd565b820191906000526020600020905b8154815290600101906020018083116103c057829003601f168201915b505050505081526020016004820180546103f690610a7a565b80601f016020809104026020016040519081016040528092919081815260200182805461042290610a7a565b801561046f5780601f106104445761010080835404028352916020019161046f565b820191906000526020600020905b81548152906001019060200180831161045257829003601f168201915b5050509183525050600582015460208201526006909101546001600160a01b0381166040830152600160a01b900460ff16151560609091015292915050565b6000546001600160a01b031633146105135760405162461bcd60e51b815260206004820152602260248201527f4f6e6c79206f776e65722063616e20706572666f726d2074686973206163746960448201526137b760f11b606482015260840161016b565b600085511161055c5760405162461bcd60e51b8152602060048201526015602482015274149958dbdc99081251081a5cc81c995c5d5a5c9959605a1b604482015260640161016b565b60008251116105ad5760405162461bcd60e51b815260206004820152601960248201527f446f63756d656e74206861736820697320726571756972656400000000000000604482015260640161016b565b6001856040516105bd9190610a5e565b9081526040519081900360200190206006015460ff600160a01b90910416156106205760405162461bcd60e51b81526020600482015260156024820152745265636f726420616c72656164792065786973747360581b604482015260640161016b565b604051806101000160405280868152602001858152602001848152602001838152602001828152602001428152602001336001600160a01b03168152602001600115158152506001866040516106769190610a5e565b908152604051908190036020019020815181906106939082610b03565b50602082015160018201906106a89082610b03565b50604082015160028201906106bd9082610b03565b50606082015160038201906106d29082610b03565b50608082015160048201906106e79082610b03565b5060a0820151600582015560c08201516006909101805460e0909301511515600160a01b026001600160a81b03199093166001600160a01b0390921691909117919091179055604051339061073d908790610a5e565b60405180910390207f6f7b1b1104990466fa0688826d98a0332d7f1104e921c5e364d6dda29d9d67bf8686864260405161077a9493929190610bc3565b60405180910390a35050505050565b634e487b7160e01b600052604160045260246000fd5b600082601f8301126107b057600080fd5b813567ffffffffffffffff808211156107cb576107cb610789565b604051601f8301601f19908116603f011681019082821181831017156107f3576107f3610789565b8160405283815286602085880101111561080c57600080fd5b836020870160208301376000602085830101528094505050505092915050565b60006020828403121561083e57600080fd5b813567ffffffffffffffff81111561085557600080fd5b6108618482850161079f565b949350505050565b60005b8381101561088457818101518382015260200161086c565b50506000910152565b600081518084526108a5816020860160208601610869565b601f01601f19169290920160200192915050565b60208152600082516101008060208501526108d861012085018361088d565b91506020850151601f19808685030160408701526108f6848361088d565b93506040870151915080868503016060870152610913848361088d565b93506060870151915080868503016080870152610930848361088d565b935060808701519150808685030160a08701525061094e838261088d565b92505060a085015160c085015260c085015161097560e08601826001600160a01b03169052565b5060e0850151801515858301525090949350505050565b600080600080600060a086880312156109a457600080fd5b853567ffffffffffffffff808211156109bc57600080fd5b6109c889838a0161079f565b965060208801359150808211156109de57600080fd5b6109ea89838a0161079f565b95506040880135915080821115610a0057600080fd5b610a0c89838a0161079f565b94506060880135915080821115610a2257600080fd5b610a2e89838a0161079f565b93506080880135915080821115610a4457600080fd5b50610a518882890161079f565b9150509295509295909350565b60008251610a70818460208701610869565b9190910192915050565b600181811c90821680610a8e57607f821691505b602082108103610aae57634e487b7160e01b600052602260045260246000fd5b50919050565b601f821115610afe57600081815260208120601f850160051c81016020861015610adb5750805b601f850160051c820191505b81811015610afa57828155600101610ae7565b5050505b505050565b815167ffffffffffffffff811115610b1d57610b1d610789565b610b3181610b2b8454610a7a565b84610ab4565b602080601f831160018114610b665760008415610b4e5750858301515b600019600386901b1c1916600185901b178555610afa565b600085815260208120601f198616915b82811015610b9557888601518255948401946001909101908401610b76565b5085821015610bb35787850151600019600388901b60f8161c191681555b5050505050600190811b01905550565b608081526000610bd6608083018761088d565b8281036020840152610be8818761088d565b90508281036040840152610bfc818661088d565b9150508260608301529594505050505056fea264697066735822122091700c3879ab61930e243432547fd3a93b46e7829a6463640eaef6db72fedaae64736f6c63430008140033",
  "immutableReferences": {},
  "source": "// SPDX-License-Identifier: MIT\npragma solidity ^0.8.20;\n\ncontract BarangayRecords {\n    struct Record {\n        string recordId;\n        string residentName;\n        string documentType;\n        string documentHash;\n        string ipfsCid;\n        uint256 createdAt;\n        address uploadedBy;\n        bool exists;\n    }\n\n    address public owner;\n    mapping(string => Record) private records;\n\n    event RecordStored(\n        string indexed recordId,\n        string residentName,\n        string documentType,\n        string documentHash,\n        uint256 createdAt,\n        address indexed uploadedBy\n    );\n\n    modifier onlyOwner() {\n        require(msg.sender == owner, \"Only owner can perform this action\");\n        _;\n    }\n\n    constructor() {\n        owner = msg.sender;\n    }\n\n    function addRecord(\n        string memory recordId,\n        string memory residentName,\n        string memory documentType,\n        string memory documentHash,\n        string memory ipfsCid\n    ) public onlyOwner {\n        require(bytes(recordId).length > 0, \"Record ID is required\");\n        require(bytes(documentHash).length > 0, \"Document hash is required\");\n        require(!records[recordId].exists, \"Record already exists\");\n\n        records[recordId] = Record({\n            recordId: recordId,\n            residentName: residentName,\n            documentType: documentType,\n            documentHash: documentHash,\n            ipfsCid: ipfsCid,\n            createdAt: block.timestamp,\n            uploadedBy: msg.sender,\n            exists: true\n        });\n\n        emit RecordStored(recordId, residentName, documentType, documentHash, block.timestamp, msg.sender);\n    }\n\n    function getRecord(string memory recordId) public view returns (Record memory) {\n        require(records[recordId].exists, \"Record not found\");\n        return records[recordId];\n    }\n}\n",
  "sourcePath": "C:\\Users\\dever\\OneDrive\\Desktop\\ChainWise\\blockchain\\contracts\\BarangayRecords.sol",
  "compiler": {
    "name": "solc",
    "version": "0.8.20+commit.a1b79de6.Emscripten.clang"
  },
  "schemaVersion": "3.4.16",
  "updatedAt": "2026-03-12T13:17:18.342Z",
  "networkType": "ethereum",
  "devdoc": {
    "kind": "dev",
    "methods": {},
    "version": 1
  },
  "userdoc": {
    "kind": "user",
    "methods": {},
    "version": 1
  }
}